{"abi":[{"type":"function","name":"stake","inputs":[{"name":"amount","type":"uint256","internalType":"uint256"}],"outputs":[],"stateMutability":"nonpayable"},{"type":"function","name":"stakedBalances","inputs":[{"name":"","type":"address","internalType":"address"}],"outputs":[{"name":"","type":"uint256","internalType":"uint256"}],"stateMutability":"view"},{"type":"function","name":"unstake","inputs":[{"name":"amount","type":"uint256","internalType":"uint256"}],"outputs":[],"stateMutability":"nonpayable"},{"type":"event","name":"Staked","inputs":[{"name":"user","type":"address","indexed":true,"internalType":"address"},{"name":"amount","type":"uint256","indexed":false,"internalType":"uint256"}],"anonymous":false},{"type":"event","name":"Unstaked","inputs":[{"name":"user","type":"address","indexed":true,"internalType":"address"},{"name":"amount","type":"uint256","indexed":false,"internalType":"uint256"}],"anonymous":false}],"bytecode":{"object":"0x6080604052348015600e575f5ffd5b5061057e8061001c5f395ff3fe608060405234801561000f575f5ffd5b506004361061003f575f3560e01c80631460fa87146100435780632e17de7814610073578063a694fc3a1461008f575b5f5ffd5b61005d60048036038101906100589190610324565b6100ab565b60405161006a9190610367565b60405180910390f35b61008d600480360381019061008891906103aa565b6100bf565b005b6100a960048036038101906100a491906103aa565b6101e1565b005b5f602052805f5260405f205f915090505481565b805f5f3373ffffffffffffffffffffffffffffffffffffffff1673ffffffffffffffffffffffffffffffffffffffff1681526020019081526020015f2054101561013e576040517f08c379a00000000000000000000000000000000000000000000000000000000081526004016101359061042f565b60405180910390fd5b805f5f3373ffffffffffffffffffffffffffffffffffffffff1673ffffffffffffffffffffffffffffffffffffffff1681526020019081526020015f205f828254610189919061047a565b925050819055503373ffffffffffffffffffffffffffffffffffffffff167f0f5bb82176feb1b5e747e28471aa92156a04d9f3ab9f45f28e2d704232b93f75826040516101d69190610367565b60405180910390a250565b5f8111610223576040517f08c379a000000000000000000000000000000000000000000000000000000000815260040161021a906104f7565b60405180910390fd5b805f5f3373ffffffffffffffffffffffffffffffffffffffff1673ffffffffffffffffffffffffffffffffffffffff1681526020019081526020015f205f82825461026e9190610515565b925050819055503373ffffffffffffffffffffffffffffffffffffffff167f9e71bc8eea02a63969f509818f2dafb9254532904319f9dbda79b67bd34a5f3d826040516102bb9190610367565b60405180910390a250565b5f5ffd5b5f73ffffffffffffffffffffffffffffffffffffffff82169050919050565b5f6102f3826102ca565b9050919050565b610303816102e9565b811461030d575f5ffd5b50565b5f8135905061031e816102fa565b92915050565b5f60208284031215610339576103386102c6565b5b5f61034684828501610310565b91505092915050565b5f819050919050565b6103618161034f565b82525050565b5f60208201905061037a5f830184610358565b92915050565b6103898161034f565b8114610393575f5ffd5b50565b5f813590506103a481610380565b92915050565b5f602082840312156103bf576103be6102c6565b5b5f6103cc84828501610396565b91505092915050565b5f82825260208201905092915050565b7f496e73756666696369656e74207374616b65642062616c616e636500000000005f82015250565b5f610419601b836103d5565b9150610424826103e5565b602082019050919050565b5f6020820190508181035f8301526104468161040d565b9050919050565b7f4e487b71000000000000000000000000000000000000000000000000000000005f52601160045260245ffd5b5f6104848261034f565b915061048f8361034f565b92508282039050818111156104a7576104a661044d565b5b92915050565b7f416d6f756e74206d7573742062652067726561746572207468616e20300000005f82015250565b5f6104e1601d836103d5565b91506104ec826104ad565b602082019050919050565b5f6020820190508181035f83015261050e816104d5565b9050919050565b5f61051f8261034f565b915061052a8361034f565b92508282019050808211156105425761054161044d565b5b9291505056fea2646970667358221220bff7e10dd9dc4a10083e7a52873b1cc0a0cde496dce58f211f5491ed9c32006264736f6c634300081c0033","linkReferences":{}},"methodIdentifiers":{"stake(uint256)":"a694fc3a","stakedBalances(address)":"1460fa87","unstake(uint256)":"2e17de78"},"id":0}